:020000040000fa
:080000000002040000000000f2
:020000040000fa
:100008009a0200009a0200009a0200009a02000078
:100018009a0200009a0200009a0200009a02000068
:100028009a0200009a0200009a0200009a02000058
:100038009a0200009a0200009a0200009a02000048
:100048009a0200009a0200009a0200009a02000038
:100058009a020000e80500009a0200009a020000d7
:100068009a0200009a0200009a020000b6050000f9
:100078009a0200009a0200009a0200009a02000008
:100088009a0200009a0200009a0200009a020000f8
:100098009a0200009a0200009a0200009a020000e8
:1000a8009a0200009a0200009a0200009a020000d8
:1000b8009a0200009a0200009a0200009a020000c8
:1000c8009a0200009a0200009a0200009a020000b8
:1000d8009a0200009a0200009a0200009a020000a8
:1000e8009a0200009a0200009a0200009a02000098
:1000f8009a0200009a0200009a0200009a02000088
:100108009a0200009a0200009a0200009a02000077
:100118009a0200009a0200009a0200009a02000067
:100128009a0200009a0200009a0200009a02000057
:100138009a0200009a0200009a0200009a02000047
:100148009a0200009a0200009a0200009a02000037
:100158009a0200009a0200009a0200009a02000027
:100168009a0200009a0200009a0200009a02000017
:100178009a0200009a0200009a0200009a02000007
:100188009a0200009a0200009a0200009a020000f7
:100198009a0200009a0200009a0200009a020000e7
:1001a8009a0200009a0200009a0200009a020000d7
:1001b8009a0200009a0200009a0200009a020000c7
:1001c8009a0200009a0200009a0200009a020000b7
:1001d8009a0200009a0200009a0200009a020000a7
:1001e8009a0200009a0200009a0200009a02000097
:0801f8009a0200009a020000c7
:020000040000fa
:100208009a0200009a0200009a0200009a02000076
:100218009a0200009a0200009a0200009a02000066
:100228009a0200009a0200009a0200009a02000056
:100238009a0200009a0200009a0200009a02000046
:100248009a0200009a0200009a0200009a02000036
:100258009a020000e80500009a0200009a020000d5
:100268009a0200009a0200009a020000b6050000f7
:100278009a0200009a0200009a0200009a02000006
:100288009a0200009a0200009a0200009a020000f6
:100298009a0200009a0200009a0200009a020000e6
:1002a8009a0200009a0200009a0200009a020000d6
:1002b8009a0200009a0200009a0200009a020000c6
:1002c8009a0200009a0200009a0200009a020000b6
:1002d8009a0200009a0200009a0200009a020000a6
:1002e8009a0200009a0200009a0200009a02000096
:1002f8009a0200009a0200009a0200009a02000086
:100308009a0200009a0200009a0200009a02000075
:100318009a0200009a0200009a0200009a02000065
:100328009a0200009a0200009a0200009a02000055
:100338009a0200009a0200009a0200009a02000045
:100348009a0200009a0200009a0200009a02000035
:100358009a0200009a0200009a0200009a02000025
:100368009a0200009a0200009a0200009a02000015
:100378009a0200009a0200009a0200009a02000005
:100388009a0200009a0200009a0200009a020000f5
:100398009a0200009a0200009a0200009a020000e5
:1003a8009a0200009a0200009a0200009a020000d5
:1003b8009a0200009a0200009a0200009a020000c5
:1003c8009a0200009a0200009a0200009a020000b5
:1003d8009a0200009a0200009a0200009a020000a5
:1003e8009a0200009a0200009a0200009a02000095
:0803f8009a0200009a020000c5
:020000040000fa
:100400002f8020000e7f22000e01880000000000d7
:10041000000020000000e000020032000001200087
:10042000200288000c000700006e20000100200060
:1004300011000700000020000000e0000200320070
:1004400000000200000000007a0502000000000029
:100450000040da000000fe004440a9000000200037
:100460000000e0000300320000002000a00188002e
:100470004440a80000000600910188008000780038
:100480000000eb0015003700e280400032a0b4000d
:100490009101ba00e280400032a0b4009102ba009b
:1004a000e280400032a0b4000002eb00472bde00e7
:1004b000f507b200602ce10004003a000059eb009f
:1004c0008301e900fdff3e00040037006128e100e0
:1004d000010032000082eb00040007001101ba00a5
:1004e0000200e000e8ff3a00000006003159ba00bf
:1004f0008301e9000c0032002159ba008301e900b0
:10050000080032000400e00003003a00e2804000ee
:1005100032a0b400f5ff370011d9ba008301e90019
:10052000faff3a008100e800e180400032a0b40008
:0c053000000006000040da000000fe00a1
:020000040000fa
:10053c000800fa00004f7800110798002207980075
:10054c00330798003e029000e00f52000500320085
:10055c009e4278000582fb004c22dd006416880068
:10056c00070037009e4278000582fb004422de0023
:10057c00044278000482fb004c22dd0064168800e3
:10058c001e02900004427800614262000482fb006b
:10059c00610262004722dd0066168000f5f72f002d
:1005ac0085026300050272006416880010002000aa
:1005bc008e010700ccc2a800100020008b010700a0
:1005cc00ccc2a90010002000880107002e0090006a
:1005dc00860107000080fa00000006000600fa0001
:1005ec00004f780011079800220798008001eb005b
:1005fc002e0190009e0090001e407800ccff07005a
:10060c00130020002e0190009e0090001e407800e8
:10061c00c7ff07000080fa00000006000200fa0085
:10062c00004f78001e427800e202200011002000ea
:10063c0004407800e9ff07000080fa000000060083
:10064c000000fa00c8e2a900c8c2a900c9e2a900ca
:10065c00c9c2a900c9a2a900c982a900c05d200015
:10066c006201070013002000420021008000eb0013
:10067c0030c0b300aeff070013002000420620007c
:10068c008000eb0030c0b300a9ff070082022000fd
:10069c008000eb0020c3b300d0ff070082022000d3
:1006ac008000eb0080c2b300ccff07008202200068
:1006bc008000eb0080c0b300c8ff070082662000fa
:1006cc008000eb0010c0b300c4ff070082022000c2
:1006dc008000eb0060c0b300c0ff07008202200066
:1006ec008000eb00c0c0b300bcff07000080fa0024
:1006fc00000006000400fa00100798000002eb004e
:10070c00040f7800070037001e0278009e0290004c
:10071c00048242001442780004407800bfff0700b6
:10072c001e0fe8001e0278009e0290000482420018
:10073c0014427800e04f5200f3ff3a000080fa00b8
:10074c00000006000000fa00826620008000eb002a
:10075c0010c0b300a1ff07000080fa0000000600e3
:10076c000400fa0020479800314798000408200044
:10077c00040f78003e4290000482fb001e0f4200e2
:10078c002e429000e14f520002003a000404200077
:10079c001e0f42001e0278000442780082022000e4
:1007ac008000eb00044078008cff070082022000e0
:1007bc008000eb0000ccb30088ff07000080fa003b
:1007cc00000006000400fa0010079800ddff070087
:1007dc000002eb00040f7800150037001e027800b1
:1007ec00e80f5200080032001e0278009e029000b2
:1007fc0004824200144278000440780087ff07000e
:10080c001e0fe8000a0037008040eb0010c0b30058
:10081c00d3ff07001e0278009e0290000482420063
:10082c0014427800044078007cff07001e0fe8009b
:10083c001e0278009e02900004824200144278004e
:10084c00e04f5200e5ff3a000080fa00000006007d
:10085c000000fa000002eb0054088800345c200011
:10086c0074088800940880000440a1000450a10082
:10087c00940888008461a800240c80000400a10066
:10088c000410a0000420a000240c88000536800071
:10089c00f40f2e00848262000420210005027200f5
:1008ac0004368800ce42a8000002eb00140c88002d
:1008bc00e4002000040c880013e1a8000080fa007a
:1008cc00000006000000fa008a61a800540c8000a9
:1008dc000400a1000410a0000420a000540c880007
:1008ec0015368000f40f2e00848262000430210043
:1008fc000502720014368800ce82a8000002eb00bc
:10090c00440c8800e4002000340c88000080fa00bd
:10091c00000006000000fa001536800004fe2f00cf
:10092c000482620014368800ce22a90005368000ad
:10093c00f40f2e0084826200042021000502720054
:10094c0004368800ce42a80074088000040c88008d
:10095c002536800004fe2f000482620024368800b5
:10096c00ce62a90015368000f40f2e00848262003e
:10097c00043021000502720014368800ce82a800d3
:10098c0074088000340c88000080fa000000060017
:10099c000000fa001536800004fe2f00048262006d
:1009ac0014368800ce22a90005368000f40f2e00e4
:1009bc008482620004202100050272000436880043
:1009cc00ce42a8002536800004fe2f00048262006f
:1009dc0024368800ce62a90015368000f40f2e0054
:1009ec0084826200043021000502720014368800f3
:1009fc00ce82a8000080fa00000006000000fa0079
:100a0c001536800004fe2f00048262001436880024
:100a1c00ce22a90005368000f40f2e0084826200dd
:100a2c00042021000502720004368800ce42a80082
:100a3c002536800004fe2f000482620024368800d4
:100a4c00ce62a90015368000f40f2e00848262005d
:100a5c00043021000502720014368800ce82a800f2
:100a6c000080fa00000006000000fa000536800045
:100a7c00f40f2e000482620004368800ce42a900d6
:100a8c001536800004fe2f00048262002401b3009e
:100a9c0014368800ce22a80015368000f40f2e00e4
:100aac000482620014368800ce82a90025368000ac
:100abc0004fe2f00048262003401b3002436880047
:100acc00ce62a8000080fa00000006000000fa00c8
:100adc000002eb00040c88000002eb00340c8800d0
:100aec000080fa00000006000000fa0058ff070022
:100afc0074ff07007b000700d1fe0700a60007006b
:100b0c0010ff0700010037000000000004408000c7
:100b1c00050020003600200007002000860f520040
:100b2c00878f5a00f8ff3e00046001000500370073
:100b3c00080037000500370000003700e3ff07000e
:100b4c000600370073ff07000400370090ff070012
:100b5c0002003700a9ff070000000000ebff370080
:100b6c00849fbe003400f80004002000a40188001b
:100b7c000000fa008660a9005516800004022000cf
:100b8c0004826200e00f52000a003a000440800028
:100b9c00e30f520002003a000002eb000440880010
:100bac0004408000e30f52000200320034002000a9
:100bbc00044088000080fa003400f9004f02be00a7
:100bcc00004006003400f800881f78000800200060
:100bdc00a80188004f0478000000fa0085a0a90045
:100bec000080fa003400f900004006000200fa0010
:100bfc00000f78000002eb00340888001e02780019
:100c0c006e22b90004027800640888008408800011
:100c1c000440a1000450a1008408880084e0a900cd
:100c2c0011e1a80000000000250480000408200049
:100c3c0004826200e00f5200fbff320084e0a90046
:100c4c0011e1a9000080fa00000006000200fa0081
:100c5c00000f78000002eb00040888009e02780068
:100c6c009403200004aab900040278001408880038
:100c7c00240880000440a0000450a0002408880030
:100c8c008460a90005e1a800000000002404800095
:100c9c0068026200e00f5200fcff32008460a90081
:100cac0005e1a9000080fa00000006000200fa002d
:100cbc00f4232000040f78001e027800140888002a
:100ccc00240880000440a0000450a00024088800e0
:100cdc009460a8008460a90005e1a8000080fa00d7
:100cec00000006000000fa002c03a9000419800083
:100cfc000480a1000490a10004198800041980004c
:100d0c000450a0000460a0000470a0000419880026
:100d1c002043a8001419800004d0a10004e0a10015
:100d2c0004f0a100141988002343a90014198000b1
:100d3c000420a0000430a0000440a0000450a00037
:100d4c00141988002203a90025e3a90025198000a5
:100d5c00f40f2e0084826200041020000502720041
:100d6c0024198800a4c0b300044378004532200045
:100d7c00864a78000002eb00441988000002eb0060
:100d8c008419880021e3a80095a0a80085a0a900db
:100d9c000080fa00000006000000fa00c8a2a800bb
:100dac008660a9009660a8006360a8000080fa0025
:040dbc00000006002d
:020000040000fa
:100dc0000008000002000000020000000300000014
:040dd000000000001f
:020000040000fa
:020000040001f9
:0457f800ad7b000085
:020000040000fa
:020000040001f9
:0457fc003f3f00002b
:00000001FF
